:020000040020DA
:10000000008020009D002000D5201000D720100087
:1000100000000000000000000000000000000000E0
:100020000000000009125634301C0000D9201000D6
:100030000000000000000000DB201000DD201000A8
:10004000DF2010005101200061231000DF2010008C
:100050008522100099221000DF201000DF20100000
:10006000DF20100051231000E1201000E1201000DB
:10007000052410002D2410004D241000DF20100056
:10008000DF2010005329CD680348854600F016F89C
:1000900000480047E100200000802000054880471C
:1000A00005480047FEE7FEE7FEE7FEE77047FEE78C
:1000B00070470000ED6D100089002000064C0125FE
:1000C000064E05E0E36807CC2B430C3C9847103400
:1000D000B442F7D3FFF7DCFF301C2000301C2000B7
:1000E000194802F7D3FD194C0546012805D108200F
:1000F000606204F781FA822181760E2000F734FADB
:10010000616A082904D18009032801D000206062B7
:10011000A08C1021C0B204F7F1FE606A08280AD052
:1001200004F76AFA817E284600F024FB6F2001F074
:100130007BF800F06FFB04F75FFA817E284600F041
:100140001BFE00F07FFE0000A8801000301C200085
:1001500070B5154E356B154CA80706D501F7DAF8C2
:10016000203006F784FAFF280FD002F79FF8217895
:100170000F486C2915D02178652905D100214162ED
:1001800001F77AFC01F704FD70BD20700948806812
:10019000804709488179062211438171356340BF48
:1001A00070BD0821EBE70000001001403945200038
:1001B000301C2000383C2000BC3C200070B51646A6
:1001C0000C4600F0DDFF6E282ED0184D80342846F6
:1001D000216B02F763F94904C00B0843144C002E4D
:1001E000606208D080362846316B02F757F949041F
:1001F000C00B0843A0620120C003E0620D482063E9
:100200000A480E4A553860630B48A0630A480C4BF5
:10021000D338E063002041005C5A89184031401C0B
:10022000CC862128F7DB70BD064DCFE72B070000F9
:10023000803B2000CC1C00001F050000803A2000FD
:10024000EC1B20006302000070B586B072B600217E
:10025000344B029103915968009199680191D968D2
:100260000491314C0021FF22B9324A431219FF3266
:100270008132556B029E491CAD190295126B039D8C
:10028000521903920429EEDBDA69002A04D0FF2117
:1002900001310843002140E062B6009A0299914280
:1002A0000BD0491C914208D00299891C914204D07C
:1002B00001214902084302992FE0019A03999142D2
:1002C0000BD0491C914208D00399891C914204D05B
:1002D00003210902084303991FE01146009A8A1876
:1002E00004998A4208D0049C511CA14204D00121E7
:1002F00089020843214610E01A68596991420ED0DC
:100300004B1C5B075B0F934209D08B1C5B075B0F99
:10031000934204D005231B02184300F0F1F806B005
:1003200070BD0000301C2000442320000B4610B597
:10033000044942088978914202D0184600F0E0F85A
:1003400010BD0000A03A200010B50549054A4968D3
:1003500052690969914201D000F0D2F810BD000045
:100360002C452000301C200070B5184C21698805F0
:10037000000E421CD3B2164A1278824203D09A422F
:1003800001D01A201FE0134A127E824204D09A4202
:1003900002D0FF201B3016E00F4A127C824203D0AD
:1003A0009A4201D00D480EE00D4A127A824203D0E3
:1003B0009A4201D00B4806E062698807800F530813
:1003C000984202D0084800F09BF870BD301C200015
:1003D0006423200004252000C42620001A02000007
:1003E000842820001A0300001A04000070B5440895
:1003F000640078235C43174D174B2A691E59B2429B
:1004000004D0FF200130084331461FE0E4186A6938
:100410006468A24204D0012040020843214615E04E
:1004200001250C4C28437825803468431D58626CA4
:10043000AA4202D00320000206E0C018A26C406865
:10044000824205D0012080020843294600F058F876
:1004500070BD0000C03D2000841F2000FFB583B0A8
:100460000020009003981C460068401A01120029E1
:1004700000DC0021D0B200F069FE05461F4FA0004D
:10048000C019FF300130406A019000F079FE6E28FB
:100490000DD09626B54228DA3C21284601F726FEE3
:1004A0003C2141436C1A002C03DC012404E04B2660
:1004B000F0E73C2C00DD3C248000C019FF30013007
:1004C000C76A006B3C21381A01F710FE6043391AE5
:1004D000019801F7CBFF4904C00B08430399496811
:1004E000814202DA0120009001E0B54202DB0C9863
:1004F00000210160009807B0F0BD0000803A2000A4
:100500000D4606461446C0B2102104F7F7FC30042D
:10051000000E112104F7F2FC1E4E1221307D04F76B
:10052000EDFC3078132104F7E9FC307E142104F748
:10053000E5FCE8B2152104F7E1FC2804000E1621C1
:1005400004F7DCFC2802000E172104F7D7FC280E64
:10055000182104F7D3FCE0B2192104F7CFFC2004E2
:10056000000E1A2104F7CAFC2002000E1B2104F71A
:10057000C5FC200E1C2104F7C1FC0821032004F750
:10058000BDFC402005F7A2F8202005F79FF862B6D1
:10059000FEE70000301C2000F0B58BB0202223497C
:1005A000684601F7DDFD234800240146C4311030C0
:1005B0006D461F4E0991089004F71EF80146BC20B5
:1005C0001D4A6043801830312F2201F017F9FF20B7
:1005D000B9306043801907466E22184901F00EF9C0
:1005E0002037BC70E700E9591E22089801F006F98F
:1005F000781941681E22099801F000F903F7BCFD43
:10060000F020214641430E481E220818074608994B
:1006100001F0F4F8384678301E22099901F0EEF81E
:10062000641C042CC8DB0BB0F0BD00000C182000CB
:1006300044232000C03D2000242A2000803A2000CE
:10064000841F2000F8B572B61C4C1D4E60691D4F0A
:10065000C507ED0F15D0FF214008B9314843801977
:100660006E22194901F0CAF803F7C6FF6169BC227E
:1006700049085143CB1901462F223031184601F069
:10068000BDF8207D401C4007400F6061002D13D055
:10069000FF214008B931484381196E220A4801F010
:1006A000ADF803F7A9FF6169BC2249085143C91994
:1006B0002F22303001F0A2F862B6F8BD301C2000C5
:1006C00044232000242A2000803A200030B50D4C1D
:1006D0002078401C4007400F2060C10711D17821CD
:1006E000094D484341191E22084801F087F8206847
:1006F00078214843411905481E22B430783101F071
:100700007DF830BD301C2000841F2000D03D20002B
:100710000A4900B5884201DDFF2000BD2928FCDB25
:1007200000F012F806494018064948430521001216
:10073000C90240188030001200BD000024842E0041
:10074000AEFAFFFF420D000001020020802293005C
:1007500003E0491C4910FF3001309942F9DC49435C
:100760000912994202DB491C491080185210F6D137
:100770007047000070B50D460446012817D0002CC4
:1007800015D002F7D1FA03F737FF857603F734FF68
:10079000807E05F772FF204602F750FA02213620CC
:1007A00004F7ACFB03211B2004F7A8FB70BD02F784
:1007B0001BFA10480121C26A89038A43C262803051
:1007C000026E134B8A4302660C490B48C8600D4801
:1007D0000B4981630C4941600C49002250000E5ABC
:1007E000C0184030521CC686212AF7DB00F0E2FC1C
:1007F000C9E70000403E20001D172000383F2000C0
:10080000B5082000383C200011132000EC1B20000C
:10081000803A2000264C00F7E3FD283005F727FF3B
:10082000401CC0B20A2104F769FB05F753FC06F728
:1008300045FE002801D000F0BFFE04F74FF9002864
:1008400001D004F747FA07F70DFB002801D004F7A1
:1008500011FBA06B804700281FD004F749F900283E
:1008600005D004F7CFFA0321FF2006F74DFE04F769
:1008700021F9002801D003F755FE03F7E7FE03F73F
:1008800057FF00F0BFFE0028C5D000F085FF00280C
:1008900008D0616818208847BDE704F7C5F8206CC8
:1008A0008047E4E71A21802004F728FBB3E7000023
:1008B000383F2000F7B59EB0144603F79DFE149014
:1008C000C9480F90002C03D1008A0F99401C088260
:1008D00003F792FE303011902422002104A807F77C
:1008E0000FFAC24D0020696810911E9E13A9019055
:1008F000029003900091BE480123476B04AA802117
:100900003046B8471099696000280CD0B948B84FF4
:100910001590BB6E224680219847B34880381090CE
:10092000002C03D008E0242021B0F0BD0020686036
:10093000A8601098B049C1610498C013810088195B
:100940000246803AD26F7158406851180918A7487A
:100950005822C160A448E038017F20381790204613
:1009600050431290002911D003F746FEA3493030BE
:100970004A68002A1FD08030418F00291BD0D00345
:10098000FFF6D8FB17998863012510E11199049AA5
:1009900041189B480A6188630120179AC00390633D
:1009A0000120032382008A180D69401C156193639E
:1009B0000A28F7DBE8E701211798C9038163E3E719
:1009C0008B4EF06A002800D080472422002104A822
:1009D00007F796F91E98690208180D901199129858
:1009E000864F4118A800199008181A900269A000B3
:1009F000C019806A7E4E8030016B336F0D98984726
:100A0000002213A90195029200910390766B0323B3
:100A100004AA80210D98B047189000287ED01A981B
:100A2000012103690F98C90382691798806B401AE6
:100A300042431013181A019000201A900646012014
:100A4000169016A8009023462A4604A80199FFF79D
:100A500005FD002802D00126049900E001990F98B5
:100A6000028A408A824201D90F9A10822820634A62
:100A700060438218199817180F98FF37028A413778
:100A8000386802F7A2FE386002901698012804D157
:100A90001498016A0198401A029000201B907FE090
:100AA000002E0ED0169800280BD016A800900C200F
:100AB0003146414304A8081823462A460199FFF706
:100AC000CDFC30460C21484304A91C90085805224F
:100AD0000199D2038918884201DA01211A911699E5
:100AE000002901D0029903E01A990029FAD001994E
:100AF000401A011200D50021E8B200F027FB071EC2
:100B000000DC01271698012806D139480D9A436F59
:100B100038460199984707461B9800E044E00228B0
:100B20003ADA3848874237DA1C9904A8081813992A
:100B30001C904068491C01F7D9FA304909680979C5
:100B4000090601D5FFF7E4FDFF2800D9FF2027495A
:100B500012238A78521C8A701B9A5A43E300E318C6
:100B6000D2185219521E9200511888758F82CD7575
:100B70001098C069B84201D91098C7611098C8226E
:100B8000016A384602F7EAFD002805D017481C998B
:100B900082688968511881601B98401C761C1B90E4
:100BA0001898864200DA7BE76D1C0A2D04DA164895
:100BB0000078002800D103E70D4D23466E6E0B4AE6
:100BC00080211598B0471148006B8047611C88420E
:100BD00002D11098C16901622B6C22461F991E98A0
:100BE000984740B2A0E60000003C20008844200066
:100BF000383C2000084220003F420F00803A20008D
:100C000030750000B414000000402000383F200080
:100C100010B50849002048616E220749074800F0D6
:100C2000EDFD03F7E9FC2F220549303000F0E6FD29
:100C300010BD0000301C200044232000803A20001A
:100C4000242A200030B5094D00241E2208490948F5
:100C50002C6000F0D3FD064906481E227831B430DE
:100C600000F0CCFDEC612C6230BD0000301C200097
:100C7000841F2000D03D200010B500200D4B0446FD
:100C8000FF21B9314143CA181146FF3181314C630C
:100C900020320C639070401C0428F1DBFFF7D2FF78
:100CA000FFF7B6FF0448846144608460C460046157
:100CB00010BD000044232000301C2000FEB52B484E
:100CC0002B4F41690191016800250091274C1621A5
:100CD0006069FFF78BFB002038702061254C206B8A
:100CE0008047012804DDE16A01208847064600E0CC
:100CF0000026E16A00208847029003F77DFC324617
:100D0000029902F735FE206B8047012804DDE16A75
:100D100001208847064600E00026E16A0020884757
:100D2000044603F769FC32462146FFF747FAFFF70E
:100D3000CDFCFFF7CBFCFFF785FCFFF783FC6D1CB8
:100D4000042DC3DB0948019A4169914201D0172063
:100D500005E001680098814203D002461820FFF7A1
:100D6000CFFB1920FFF770FAFEBD0000301C2000F9
:100D7000A03A2000383F200070B50D4604460128F7
:100D800020D0002C1ED0A00601D4FFF775FF20460E
:100D900001F7CAFF03F730FC857603F72DFC807E50
:100DA00005F76BFC204601F749FF03F725FC0F21EF
:100DB000C1750221362004F7A1F803211B2004F796
:100DC0009DF870BD01F710FF12480121C26A890326
:100DD0008A43C2628030026E8A430266FFF7DCFB00
:100DE000FFF74AFF0D480C49C1600E4A0C49916358
:100DF0000D49D1620D4941610D49C1630D49016140
:100E00000D48D0610D4810610D48506000F0D2F9D6
:100E1000C0E70000403E2000ED102000383F2000D9
:100E2000B5082000383C2000451520004916200058
:100E30002D162000F5162000591320007D142000E7
:100E4000BD0C2000002431264A4F4B4D00F7C8FA54
:100E5000283005F70CFC401CC0B20A2104F74EF8FC
:100E600005F738F906F72AFB002801D000F08EF8C4
:100E700003F734FE002832D0002240491046FF23F9
:100E8000B93343435B1820335B78401C9A18D2B2C5
:100E90000428F4DB002A20D0394A0020FF23B9338C
:100EA00001465943354BC91821235E54A0310C77B4
:100EB0000146BC235943545089184C608C60401C37
:100EC000CC600428EADB03F797FB04634463846384
:100ED000C4632C4846708030047703F7FBFE286813
:100EE000002805D106F7BEFF002801D003F7C2FF96
:100EF000B86B8047002832D003F7FAFD002805D0F0
:100F000003F780FF0321FF2006F7FEFA03F7D2FD67
:100F1000002814D002216869FFF708FA1A48416BCB
:100F2000491C41630320FFF70FFAFFF71DFA03F78F
:100F3000F9FAFFF787FB04216869FFF7F7F972B642
:100F4000296868690843A9690843296A0843E96967
:100F500008430CD062B620BF03F7EAFB76E7012016
:100F6000FFF772F903F760FD386C8047CEE703F7AF
:100F70006DFBF1E7383F2000301C200044232000A7
:100F8000242A2000A03A2000003C2000FEB5544E48
:100F9000307800250F27534C00901F2835D006DCF1
:100FA00010280BD0152867D0192872D125E02028E9
:100FB00034D0FF286DD1FFF75FFE6AE072B635705E
:100FC00062B603F71FFFFFF757FE03F715FBC77560
:100FD0000E20FFF6C9FA800903280AD008210E2046
:100FE00003F78CFF402004F771FB202004F76EFB11
:100FF000FEBD03F791FE01466BE007216069FFF734
:1010000095F906F7DFF9082155E072B6357062B63A
:1010100003F7F8FEFFF730FE00215AE072B6357094
:1010200062B603F7E9FAC77509216069FFF77EF92F
:101030000A20FFF709F90120206203F7E3FE03F716
:101040008DFA064628482562416B891C4163606819
:10105000A561801C6060FFF739FBFFF737FBFFF7E6
:10106000F1FAFFF7EFFA0B216069FFF75FF90C2047
:10107000FFF7EAF831462CE000F74CF98030019098
:1010800005F7F5FA0746172819D0182F17D0192891
:1010900002D000F091FAFEBD0D216069FFF746F91C
:1010A00006F790F9FFF712FBFFF710FBFFF7CAFAFC
:1010B000FFF7C8FA0E216069FFF738F9FEBD72B676
:1010C000357062B60021019805F7EFFA172F04D0AA
:1010D0000B21009806F718FAFEBD0A21F9E7000077
:1010E00039452000301C2000003C2000F3B50646A6
:1010F000B4201449704344188C34208D124D0004E0
:10110000C70E286881B0C10704D00146002205201F
:10111000FFF7F6F90621FFF769F90120E8611F20C2
:10112000A16AC0028143A1623046029906F71AFC07
:101130001F21A06AC9028843F9020843A062002067
:10114000E861FEBDC03D2000301C200040080A4A76
:101150008000801840680F23800848430749400BEF
:101160004843916A8031096A8A02920F09029A1AE9
:10117000C90F511A08417047803A200051070000FA
:101180000148007870470000581C200089000918A9
:10119000002200E004C08142FCD1704710B59200EB
:1011A000121803E00C68036810C008C18242F9D12C
:1011B00010BD0000F8B5194F194E0024B42060434B
:1011C000C1191420604385192D1D05222846A83118
:1011D00000F014FB284600F0C5FA641CE4B2022CAF
:1011E000ECD30F482C3000F0B1FA0D4BBC213C334E
:1011F0001846FFF7CBFF31240A4802E0B821CC544F
:10120000BC338342FAD303F7F7F9E03004726F205E
:101210003070192103F772FEF8BD0000C03D2000B8
:10122000581C2000841F2000F1B5324C82B0217878
:101230000298814236D0304E0025B420684381198F
:101240001420684300190522001DA831FFF7A6FFEE
:101250006D1CEDB2022DF0D32648042227492C3014
:10126000FFF79CFF03F7C8F9303000902148283879
:10127000416A6430082916D001462F220098FFF7F2
:101280008DFF00981E49A030007E4870072103F7AB
:1012900035FE1C48806A8047029820701921029808
:1012A00003F72CFEFEBD184D00221146BC23594306
:1012B000FF27B93713467B43144F4E19DB192033F0
:1012C0000919A0365F78DC313776097E521C5970D7
:1012D000042AEADBBC220C49FFF760FF0548BC2169
:1012E000283840692F22400848434119009800F0EF
:1012F00085FAC6E7581C2000C03D2000E43C2000D1
:10130000A03A2000383C2000242A2000442320005A
:1013100070B514460D4602F72BFBFFF731FF6E2820
:1013200015D18035286B0A4D294601F7B7F84904D5
:10133000C00B0843074E002C706208D08034294649
:10134000206B01F7ABF84904C00B0843B06270BDD5
:10135000A7040000803B2000F1B5434C86B0226812
:1013600006981518D00703D000211B20FFF7C8F8F6
:10137000A0680F21401CA0606069FEF7D7FF102114
:101380006069FFF733F86069FF214008B9314843CD
:10139000364E6E228019364900F030FA03F72CF9E8
:1013A00001466069BC2240085043324F3031C019B9
:1013B0002F2200F023FA6808FF21B931009048433A
:1013C0008019014603906E22294800F017FA03F7AE
:1013D00013F903460098BC214843C0193033014635
:1013E00001902F22184600F009FA2348016B491C8E
:1013F000016311212846FEF799FF12212846FEF7C6
:10140000F5FF069802F782FB13212846FEF78EFFB0
:101410006E221749039800F0F1F903F7EDF8014641
:1014200030312F22019800F0E9F96069FF2140086E
:10143000B931484381196E220D4800F0DFF903F7F6
:10144000DBF86169BC2249085143C9192F223030A9
:1014500000F0D4F914216069FEF768FF1521606976
:10146000FEF7C4FF07B0F0BD301C2000442320006D
:10147000803A2000242A2000003C2000F7B50F46C7
:1014800084B0154600240E21082003F737FD0820FC
:1014900004F714F8002809D021A207CA6E4607C62F
:1014A00008216B460922084603F70CFF1F4E3078CF
:1014B000002831D11E480068007940072CD51D480E
:1014C0002A46836B39460498984704460E21092022
:1014D00003F714FD307800281ED11748006B8047B1
:1014E0006D1CA84218D10E210B2003F707FD104AEE
:1014F000124820321178858A8B006D082B43104DDD
:10150000491C2B7011700169491C016103F77CF8BB
:101510006870284603F7DCFF204607B0F0BD0000E6
:10152000414C472043616C630000000000402000F4
:10153000803A2000383C2000383F2000301C20003A
:101540008844200010B50A480068002805D106F735
:1015500089FC002801D003F78DFC064CA06B804766
:10156000002803D103F760FA206C804710BD00000B
:10157000301C2000383F200070B506460D4800247E
:101580000068C5B203F738F8C17E0807800F8907E5
:10159000890F054001408D4205D103F72DF8807E6B
:1015A00005F76BF800E00D242146304605F7ACFF47
:1015B00070BD00000000044010B572B610480478F9
:1015C00000216E2C06D06F2C04D0212C0CD0FF2CC7
:1015D00011D012E0017062B62046FFF725FE00210F
:1015E000204605F791FF04E0017062B62046FFF740
:1015F000C3FF40BF10BD03F705FC05F7E3FE10BDB8
:101600003945200008480169C9070AD08168406A45
:101610007D22D200904204D98908814201D2012062
:10162000704700207047000000000240F8B5054CEC
:10163000069DA669002E04D10326A661009505F734
:10164000D1FFF8BD301C2000F8B526490024E0B2D7
:1016500005F758F9641C0146052CF8D3224D0124E6
:101660006C75224F38223846391D3C3006F72EFB68
:10167000E97D48064906400EC90FC9010843E875CF
:10168000AC754106CE0F297D761CB14200D80026EC
:10169000BF210840F107490E0843154CE875206842
:1016A000F864E068401CE060216AE069084304D106
:1016B0006068401C6060FFF709F872B6206A002875
:1016C00002D0012804D009E02068002802D105E0FA
:1016D000012E03D1E87D20210843E87562B640BFA2
:1016E000F8BD00003C452000203F20003C59200070
:1016F000301C200010B506F7D1F805488169002993
:1017000005D0491E816103480349C069086010BDC6
:10171000301C2000383C20003C59200070B5B42219
:10172000094B4243D4188C34A26A1F261304F602D4
:10173000B243DD0EA26206F715F9A06AE902B043D2
:101740000843A06270BD0000C03D20000022044993
:10175000426001600249C260C53981607047000083
:10176000CD6C00003F22C168520191430722D20193
:101770008918074A9143C16041685204914341600E
:10178000044A016891430322D2028918016070471C
:1017900018007C00007C003F70B5154CE06C804761
:1017A00002F72AFF1349407E4A6BC0061304C00E9D
:1017B000DB0E00281AD0984218D1401E1F23C00605
:1017C000DB02050C9A432A43084680304A63816E47
:1017D000994329438166206B8047616B884706489F
:1017E00005F727FB206C8047002070BD032070BDEB
:1017F000383F2000403E2000988010009200521890
:1018000001E008C908C09142FBD170472C182000A4
:10181000A41820001C192000941920000C1A200084
:10182000841A2000FC1A2000741B2000070E000000
:10183000070E0000070E0000070E00000000000069
:10184000070E0000070E0000070E0000070E000044
:1018500000000000EF31061EEF31061EEF31061EBC
:10186000EF31061EEF31061EEF31061EEF31061E68
:10187000EF31061EEF31061E008CC106008CC1063A
:10188000008CC106008CC106008CC106008CC1060C
:10189000008CC106008CC106008CC10680010000CE
:1018A0000000120A1C3800001C3800001C38000020
:1018B0001C380000000000001C3800001C3800002C
:1018C0001C3800001C38000000000000EF31061E2C
:1018D000EF31061EEF31061EEF31061EEF31061EF8
:1018E000EF31061EEF31061EEF31061EEF31061EE8
:1018F000008CC106008CC106008CC106008CC1069C
:10190000008CC106008CC106008CC106008CC1068B
:10191000008CC106800100000000120A70E0000087
:1019200070E0000070E0000070E0000000000000C7
:1019300070E0000070E0000070E0000070E0000067
:1019400000000000EF31061EEF31061EEF31061ECB
:10195000EF31061EEF31061EEF31061EEF31061E77
:10196000EF31061EEF31061E008CC106008CC10649
:10197000008CC106008CC106008CC106008CC1061B
:10198000008CC106008CC106008CC10680010000DD
:101990000000120AC0810300C0810300C08103005F
:1019A000C081030000000000C0810300C08103006B
:1019B000C0810300C081030000000000EF31061E5B
:1019C000EF31061EEF31061EEF31061EEF31061E07
:1019D000EF31061EEF31061EEF31061EEF31061EF7
:1019E000008CC106008CC106008CC106008CC106AB
:1019F000008CC106008CC106008CC106008CC1069B
:101A0000008CC106800100000000120A00000000E6
:101A1000070E0000070E0000070E0000070E000072
:101A200000000000070E0000070E0000070E000077
:101A3000070E0000DE630C3CDE630C3CDE630C3CF6
:101A4000DE630C3CDE630C3CDE630C3CDE630C3C72
:101A5000DE630C3CDE630C3C0018830D0018830D24
:101A60000018830D0018830D0018830D0018830DD6
:101A70000018830D0018830D0018830D000300006B
:101A80000000120A000000001C3800001C38000092
:101A90001C3800001C380000000000001C3800004A
:101AA0001C3800001C3800001C380000DE630C3CB1
:101AB000DE630C3CDE630C3CDE630C3CDE630C3C02
:101AC000DE630C3CDE630C3CDE630C3CDE630C3CF2
:101AD0000018830D0018830D0018830D0018830D66
:101AE0000018830D0018830D0018830D0018830D56
:101AF0000018830D000300000000120A000000001F
:101B000070E0000070E0000070E0000070E0000095
:101B10000000000070E0000070E0000070E00000D5
:101B200070E00000DE630C3CDE630C3CDE630C3CCA
:101B3000DE630C3CDE630C3CDE630C3CDE630C3C81
:101B4000DE630C3CDE630C3C0018830D0018830D33
:101B50000018830D0018830D0018830D0018830DE5
:101B60000018830D0018830D0018830D000300007A
:101B70000000120A00000000C0810300C0810300C1
:101B8000C0810300C081030000000000C081030089
:101B9000C0810300C0810300C0810300DE630C3CF0
:101BA000DE630C3CDE630C3CDE630C3CDE630C3C11
:101BB000DE630C3CDE630C3CDE630C3CDE630C3C01
:101BC0000018830D0018830D0018830D0018830D75
:101BD0000018830D0018830D0018830D0018830D65
:101BE0000018830D000300000000120A00008805A1
:101BF000370B27116517021E1E25BF2CF534C73D74
:101C00002747F650095B3865616F72796283308DC2
:101C1000DC9662A0BAA9D9B2AEBB2BC43FCCE9D343
:101C20002EDB06E28BE8B8EEA9F468FAFFFF0000AD
:04000005002000894E
:00000001FF
